{
  "_format": "hh-sol-artifact-1",
  "contractName": "TokenizedBallot",
  "sourceName": "contracts/TokenizedBallot.sol",
  "abi": [
    {
      "inputs": [
        {
          "internalType": "bytes32[]",
          "name": "_proposalNames",
          "type": "bytes32[]"
        },
        {
          "internalType": "address",
          "name": "_tokenContract",
          "type": "address"
        },
        {
          "internalType": "uint256",
          "name": "_targetBlockNumber",
          "type": "uint256"
        }
      ],
      "stateMutability": "nonpayable",
      "type": "constructor"
    },
    {
      "inputs": [
        {
          "internalType": "uint256",
          "name": "",
          "type": "uint256"
        }
      ],
      "name": "proposals",
      "outputs": [
        {
          "internalType": "bytes32",
          "name": "name",
          "type": "bytes32"
        },
        {
          "internalType": "uint256",
          "name": "voteCount",
          "type": "uint256"
        }
      ],
      "stateMutability": "view",
      "type": "function"
    },
    {
      "inputs": [],
      "name": "targetBlockNumber",
      "outputs": [
        {
          "internalType": "uint256",
          "name": "",
          "type": "uint256"
        }
      ],
      "stateMutability": "view",
      "type": "function"
    },
    {
      "inputs": [],
      "name": "tokenContract",
      "outputs": [
        {
          "internalType": "contract IMyToken",
          "name": "",
          "type": "address"
        }
      ],
      "stateMutability": "view",
      "type": "function"
    },
    {
      "inputs": [
        {
          "internalType": "uint256",
          "name": "proposal",
          "type": "uint256"
        },
        {
          "internalType": "uint256",
          "name": "amount",
          "type": "uint256"
        }
      ],
      "name": "vote",
      "outputs": [],
      "stateMutability": "nonpayable",
      "type": "function"
    },
    {
      "inputs": [
        {
          "internalType": "address",
          "name": "",
          "type": "address"
        }
      ],
      "name": "votePowerSpent",
      "outputs": [
        {
          "internalType": "uint256",
          "name": "",
          "type": "uint256"
        }
      ],
      "stateMutability": "view",
      "type": "function"
    },
    {
      "inputs": [],
      "name": "winnerName",
      "outputs": [
        {
          "internalType": "bytes32",
          "name": "winnerName_",
          "type": "bytes32"
        }
      ],
      "stateMutability": "view",
      "type": "function"
    },
    {
      "inputs": [],
      "name": "winningProposal",
      "outputs": [
        {
          "internalType": "uint256",
          "name": "winningProposal_",
          "type": "uint256"
        }
      ],
      "stateMutability": "view",
      "type": "function"
    }
  ],
  "bytecode": "0x60806040523480156200001157600080fd5b5060405162000cbf38038062000cbf83398181016040528101906200003791906200037b565b816000806101000a81548173ffffffffffffffffffffffffffffffffffffffff021916908373ffffffffffffffffffffffffffffffffffffffff1602179055508060028190555060005b83518110156200010d5760016040518060400160405280868481518110620000ae57620000ad620003f6565b5b602002602001015181526020016000815250908060018154018082558091505060019003906000526020600020906002020160009091909190915060008201518160000155602082015181600101555050808060010191505062000081565b5050505062000425565b6000604051905090565b600080fd5b600080fd5b600080fd5b6000601f19601f8301169050919050565b7f4e487b7100000000000000000000000000000000000000000000000000000000600052604160045260246000fd5b6200017b8262000130565b810181811067ffffffffffffffff821117156200019d576200019c62000141565b5b80604052505050565b6000620001b262000117565b9050620001c0828262000170565b919050565b600067ffffffffffffffff821115620001e357620001e262000141565b5b602082029050602081019050919050565b600080fd5b6000819050919050565b6200020e81620001f9565b81146200021a57600080fd5b50565b6000815190506200022e8162000203565b92915050565b60006200024b6200024584620001c5565b620001a6565b90508083825260208201905060208402830185811115620002715762000270620001f4565b5b835b818110156200029e57806200028988826200021d565b84526020840193505060208101905062000273565b5050509392505050565b600082601f830112620002c057620002bf6200012b565b5b8151620002d284826020860162000234565b91505092915050565b600073ffffffffffffffffffffffffffffffffffffffff82169050919050565b60006200030882620002db565b9050919050565b6200031a81620002fb565b81146200032657600080fd5b50565b6000815190506200033a816200030f565b92915050565b6000819050919050565b620003558162000340565b81146200036157600080fd5b50565b60008151905062000375816200034a565b92915050565b60008060006060848603121562000397576200039662000121565b5b600084015167ffffffffffffffff811115620003b857620003b762000126565b5b620003c686828701620002a8565b9350506020620003d98682870162000329565b9250506040620003ec8682870162000364565b9150509250925092565b7f4e487b7100000000000000000000000000000000000000000000000000000000600052603260045260246000fd5b61088a80620004356000396000f3fe608060405234801561001057600080fd5b506004361061007d5760003560e01c8063609ff1bd1161005b578063609ff1bd146100ef5780639e90d0d91461010d578063b384abef1461013d578063e2ba53f0146101595761007d565b8063013cf08b146100825780632a8cd29e146100b357806355a373d6146100d1575b600080fd5b61009c6004803603810190610097919061049e565b610177565b6040516100aa9291906104f3565b60405180910390f35b6100bb6101ab565b6040516100c8919061051c565b60405180910390f35b6100d96101b1565b6040516100e691906105b6565b60405180910390f35b6100f76101d5565b604051610104919061051c565b60405180910390f35b6101276004803603810190610122919061060f565b610257565b604051610134919061051c565b60405180910390f35b6101576004803603810190610152919061063c565b61026f565b005b61016161042f565b60405161016e919061067c565b60405180910390f35b6001818154811061018757600080fd5b90600052602060002090600202016000915090508060000154908060010154905082565b60025481565b60008054906101000a900473ffffffffffffffffffffffffffffffffffffffff1681565b6000806000905060005b60018054905081101561025257816001828154811061020157610200610697565b5b9060005260206000209060020201600101541115610245576001818154811061022d5761022c610697565b5b90600052602060002090600202016001015491508092505b80806001019150506101df565b505090565b60036020528060005260406000206000915090505481565b80600360003373ffffffffffffffffffffffffffffffffffffffff1673ffffffffffffffffffffffffffffffffffffffff1681526020019081526020016000205460008054906101000a900473ffffffffffffffffffffffffffffffffffffffff1673ffffffffffffffffffffffffffffffffffffffff16633a46b1a8336002546040518363ffffffff1660e01b815260040161030d9291906106d5565b602060405180830381865afa15801561032a573d6000803e3d6000fd5b505050506040513d601f19601f8201168201806040525081019061034e9190610713565b610358919061076f565b1015610399576040517f08c379a000000000000000000000000000000000000000000000000000000000815260040161039090610800565b60405180910390fd5b80600360003373ffffffffffffffffffffffffffffffffffffffff1673ffffffffffffffffffffffffffffffffffffffff16815260200190815260200160002060008282546103e89190610820565b92505081905550806001838154811061040457610403610697565b5b906000526020600020906002020160010160008282546104249190610820565b925050819055505050565b6000600161043b6101d5565b8154811061044c5761044b610697565b5b906000526020600020906002020160000154905090565b600080fd5b6000819050919050565b61047b81610468565b811461048657600080fd5b50565b60008135905061049881610472565b92915050565b6000602082840312156104b4576104b3610463565b5b60006104c284828501610489565b91505092915050565b6000819050919050565b6104de816104cb565b82525050565b6104ed81610468565b82525050565b600060408201905061050860008301856104d5565b61051560208301846104e4565b9392505050565b600060208201905061053160008301846104e4565b92915050565b600073ffffffffffffffffffffffffffffffffffffffff82169050919050565b6000819050919050565b600061057c61057761057284610537565b610557565b610537565b9050919050565b600061058e82610561565b9050919050565b60006105a082610583565b9050919050565b6105b081610595565b82525050565b60006020820190506105cb60008301846105a7565b92915050565b60006105dc82610537565b9050919050565b6105ec816105d1565b81146105f757600080fd5b50565b600081359050610609816105e3565b92915050565b60006020828403121561062557610624610463565b5b6000610633848285016105fa565b91505092915050565b6000806040838503121561065357610652610463565b5b600061066185828601610489565b925050602061067285828601610489565b9150509250929050565b600060208201905061069160008301846104d5565b92915050565b7f4e487b7100000000000000000000000000000000000000000000000000000000600052603260045260246000fd5b6106cf816105d1565b82525050565b60006040820190506106ea60008301856106c6565b6106f760208301846104e4565b9392505050565b60008151905061070d81610472565b92915050565b60006020828403121561072957610728610463565b5b6000610737848285016106fe565b91505092915050565b7f4e487b7100000000000000000000000000000000000000000000000000000000600052601160045260246000fd5b600061077a82610468565b915061078583610468565b925082820390508181111561079d5761079c610740565b5b92915050565b600082825260208201905092915050565b7f4e6f7420656e6f75676820766f74696e6720706f776572000000000000000000600082015250565b60006107ea6017836107a3565b91506107f5826107b4565b602082019050919050565b60006020820190508181036000830152610819816107dd565b9050919050565b600061082b82610468565b915061083683610468565b925082820190508082111561084e5761084d610740565b5b9291505056fea2646970667358221220285e78c6028292ce6c1c5d70ce6ad821631cd89d5fb840445d918042d5de879664736f6c63430008180033",
  "linkReferences": {},
  "deployedLinkReferences": {}
}