{
  "_format": "hh-sol-artifact-1",
  "contractName": "MyToken",
  "sourceName": "contracts/MyToken.sol",
  "abi": [
    {
      "inputs": [],
      "stateMutability": "nonpayable",
      "type": "constructor"
    },
    {
      "inputs": [],
      "name": "AccessControlBadConfirmation",
      "type": "error"
    },
    {
      "inputs": [
        {
          "internalType": "address",
          "name": "account",
          "type": "address"
        },
        {
          "internalType": "bytes32",
          "name": "neededRole",
          "type": "bytes32"
        }
      ],
      "name": "AccessControlUnauthorizedAccount",
      "type": "error"
    },
    {
      "inputs": [
        {
          "internalType": "address",
          "name": "spender",
          "type": "address"
        },
        {
          "internalType": "uint256",
          "name": "allowance",
          "type": "uint256"
        },
        {
          "internalType": "uint256",
          "name": "needed",
          "type": "uint256"
        }
      ],
      "name": "ERC20InsufficientAllowance",
      "type": "error"
    },
    {
      "inputs": [
        {
          "internalType": "address",
          "name": "sender",
          "type": "address"
        },
        {
          "internalType": "uint256",
          "name": "balance",
          "type": "uint256"
        },
        {
          "internalType": "uint256",
          "name": "needed",
          "type": "uint256"
        }
      ],
      "name": "ERC20InsufficientBalance",
      "type": "error"
    },
    {
      "inputs": [
        {
          "internalType": "address",
          "name": "approver",
          "type": "address"
        }
      ],
      "name": "ERC20InvalidApprover",
      "type": "error"
    },
    {
      "inputs": [
        {
          "internalType": "address",
          "name": "receiver",
          "type": "address"
        }
      ],
      "name": "ERC20InvalidReceiver",
      "type": "error"
    },
    {
      "inputs": [
        {
          "internalType": "address",
          "name": "sender",
          "type": "address"
        }
      ],
      "name": "ERC20InvalidSender",
      "type": "error"
    },
    {
      "inputs": [
        {
          "internalType": "address",
          "name": "spender",
          "type": "address"
        }
      ],
      "name": "ERC20InvalidSpender",
      "type": "error"
    },
    {
      "anonymous": false,
      "inputs": [
        {
          "indexed": true,
          "internalType": "address",
          "name": "owner",
          "type": "address"
        },
        {
          "indexed": true,
          "internalType": "address",
          "name": "spender",
          "type": "address"
        },
        {
          "indexed": false,
          "internalType": "uint256",
          "name": "value",
          "type": "uint256"
        }
      ],
      "name": "Approval",
      "type": "event"
    },
    {
      "anonymous": false,
      "inputs": [
        {
          "indexed": true,
          "internalType": "bytes32",
          "name": "role",
          "type": "bytes32"
        },
        {
          "indexed": true,
          "internalType": "bytes32",
          "name": "previousAdminRole",
          "type": "bytes32"
        },
        {
          "indexed": true,
          "internalType": "bytes32",
          "name": "newAdminRole",
          "type": "bytes32"
        }
      ],
      "name": "RoleAdminChanged",
      "type": "event"
    },
    {
      "anonymous": false,
      "inputs": [
        {
          "indexed": true,
          "internalType": "bytes32",
          "name": "role",
          "type": "bytes32"
        },
        {
          "indexed": true,
          "internalType": "address",
          "name": "account",
          "type": "address"
        },
        {
          "indexed": true,
          "internalType": "address",
          "name": "sender",
          "type": "address"
        }
      ],
      "name": "RoleGranted",
      "type": "event"
    },
    {
      "anonymous": false,
      "inputs": [
        {
          "indexed": true,
          "internalType": "bytes32",
          "name": "role",
          "type": "bytes32"
        },
        {
          "indexed": true,
          "internalType": "address",
          "name": "account",
          "type": "address"
        },
        {
          "indexed": true,
          "internalType": "address",
          "name": "sender",
          "type": "address"
        }
      ],
      "name": "RoleRevoked",
      "type": "event"
    },
    {
      "anonymous": false,
      "inputs": [
        {
          "indexed": true,
          "internalType": "address",
          "name": "from",
          "type": "address"
        },
        {
          "indexed": true,
          "internalType": "address",
          "name": "to",
          "type": "address"
        },
        {
          "indexed": false,
          "internalType": "uint256",
          "name": "value",
          "type": "uint256"
        }
      ],
      "name": "Transfer",
      "type": "event"
    },
    {
      "inputs": [],
      "name": "DEFAULT_ADMIN_ROLE",
      "outputs": [
        {
          "internalType": "bytes32",
          "name": "",
          "type": "bytes32"
        }
      ],
      "stateMutability": "view",
      "type": "function"
    },
    {
      "inputs": [],
      "name": "MINTER_ROLE",
      "outputs": [
        {
          "internalType": "bytes32",
          "name": "",
          "type": "bytes32"
        }
      ],
      "stateMutability": "view",
      "type": "function"
    },
    {
      "inputs": [
        {
          "internalType": "address",
          "name": "owner",
          "type": "address"
        },
        {
          "internalType": "address",
          "name": "spender",
          "type": "address"
        }
      ],
      "name": "allowance",
      "outputs": [
        {
          "internalType": "uint256",
          "name": "",
          "type": "uint256"
        }
      ],
      "stateMutability": "view",
      "type": "function"
    },
    {
      "inputs": [
        {
          "internalType": "address",
          "name": "spender",
          "type": "address"
        },
        {
          "internalType": "uint256",
          "name": "value",
          "type": "uint256"
        }
      ],
      "name": "approve",
      "outputs": [
        {
          "internalType": "bool",
          "name": "",
          "type": "bool"
        }
      ],
      "stateMutability": "nonpayable",
      "type": "function"
    },
    {
      "inputs": [
        {
          "internalType": "address",
          "name": "account",
          "type": "address"
        }
      ],
      "name": "balanceOf",
      "outputs": [
        {
          "internalType": "uint256",
          "name": "",
          "type": "uint256"
        }
      ],
      "stateMutability": "view",
      "type": "function"
    },
    {
      "inputs": [
        {
          "internalType": "uint256",
          "name": "value",
          "type": "uint256"
        }
      ],
      "name": "burn",
      "outputs": [],
      "stateMutability": "nonpayable",
      "type": "function"
    },
    {
      "inputs": [
        {
          "internalType": "address",
          "name": "account",
          "type": "address"
        },
        {
          "internalType": "uint256",
          "name": "value",
          "type": "uint256"
        }
      ],
      "name": "burnFrom",
      "outputs": [],
      "stateMutability": "nonpayable",
      "type": "function"
    },
    {
      "inputs": [],
      "name": "decimals",
      "outputs": [
        {
          "internalType": "uint8",
          "name": "",
          "type": "uint8"
        }
      ],
      "stateMutability": "pure",
      "type": "function"
    },
    {
      "inputs": [
        {
          "internalType": "bytes32",
          "name": "role",
          "type": "bytes32"
        }
      ],
      "name": "getRoleAdmin",
      "outputs": [
        {
          "internalType": "bytes32",
          "name": "",
          "type": "bytes32"
        }
      ],
      "stateMutability": "view",
      "type": "function"
    },
    {
      "inputs": [
        {
          "internalType": "bytes32",
          "name": "role",
          "type": "bytes32"
        },
        {
          "internalType": "address",
          "name": "account",
          "type": "address"
        }
      ],
      "name": "grantRole",
      "outputs": [],
      "stateMutability": "nonpayable",
      "type": "function"
    },
    {
      "inputs": [
        {
          "internalType": "bytes32",
          "name": "role",
          "type": "bytes32"
        },
        {
          "internalType": "address",
          "name": "account",
          "type": "address"
        }
      ],
      "name": "hasRole",
      "outputs": [
        {
          "internalType": "bool",
          "name": "",
          "type": "bool"
        }
      ],
      "stateMutability": "view",
      "type": "function"
    },
    {
      "inputs": [
        {
          "internalType": "address",
          "name": "to",
          "type": "address"
        },
        {
          "internalType": "uint256",
          "name": "amount",
          "type": "uint256"
        }
      ],
      "name": "mint",
      "outputs": [],
      "stateMutability": "nonpayable",
      "type": "function"
    },
    {
      "inputs": [],
      "name": "name",
      "outputs": [
        {
          "internalType": "string",
          "name": "",
          "type": "string"
        }
      ],
      "stateMutability": "view",
      "type": "function"
    },
    {
      "inputs": [
        {
          "internalType": "bytes32",
          "name": "role",
          "type": "bytes32"
        },
        {
          "internalType": "address",
          "name": "callerConfirmation",
          "type": "address"
        }
      ],
      "name": "renounceRole",
      "outputs": [],
      "stateMutability": "nonpayable",
      "type": "function"
    },
    {
      "inputs": [
        {
          "internalType": "bytes32",
          "name": "role",
          "type": "bytes32"
        },
        {
          "internalType": "address",
          "name": "account",
          "type": "address"
        }
      ],
      "name": "revokeRole",
      "outputs": [],
      "stateMutability": "nonpayable",
      "type": "function"
    },
    {
      "inputs": [
        {
          "internalType": "bytes4",
          "name": "interfaceId",
          "type": "bytes4"
        }
      ],
      "name": "supportsInterface",
      "outputs": [
        {
          "internalType": "bool",
          "name": "",
          "type": "bool"
        }
      ],
      "stateMutability": "view",
      "type": "function"
    },
    {
      "inputs": [],
      "name": "symbol",
      "outputs": [
        {
          "internalType": "string",
          "name": "",
          "type": "string"
        }
      ],
      "stateMutability": "view",
      "type": "function"
    },
    {
      "inputs": [],
      "name": "totalSupply",
      "outputs": [
        {
          "internalType": "uint256",
          "name": "",
          "type": "uint256"
        }
      ],
      "stateMutability": "view",
      "type": "function"
    },
    {
      "inputs": [
        {
          "internalType": "address",
          "name": "to",
          "type": "address"
        },
        {
          "internalType": "uint256",
          "name": "value",
          "type": "uint256"
        }
      ],
      "name": "transfer",
      "outputs": [
        {
          "internalType": "bool",
          "name": "",
          "type": "bool"
        }
      ],
      "stateMutability": "nonpayable",
      "type": "function"
    },
    {
      "inputs": [
        {
          "internalType": "address",
          "name": "from",
          "type": "address"
        },
        {
          "internalType": "address",
          "name": "to",
          "type": "address"
        },
        {
          "internalType": "uint256",
          "name": "value",
          "type": "uint256"
        }
      ],
      "name": "transferFrom",
      "outputs": [
        {
          "internalType": "bool",
          "name": "",
          "type": "bool"
        }
      ],
      "stateMutability": "nonpayable",
      "type": "function"
    }
  ],
  "bytecode": "0x60806040523480156200001157600080fd5b506040518060400160405280600781526020017f4d79546f6b656e000000000000000000000000000000000000000000000000008152506040518060400160405280600381526020017f4d544b000000000000000000000000000000000000000000000000000000000081525081600390816200008f9190620007b4565b508060049081620000a19190620007b4565b505050620000e133620000b9620000fd60201b60201c565b600a620000c7919062000a2b565b600a620000d5919062000a7c565b6200010660201b60201c565b620000f66000801b336200019360201b60201c565b5062000bcf565b60006008905090565b600073ffffffffffffffffffffffffffffffffffffffff168273ffffffffffffffffffffffffffffffffffffffff16036200017b5760006040517fec442f0500000000000000000000000000000000000000000000000000000000815260040162000172919062000b0c565b60405180910390fd5b6200018f600083836200029760201b60201c565b5050565b6000620001a78383620004c760201b60201c565b6200028c5760016005600085815260200190815260200160002060000160008473ffffffffffffffffffffffffffffffffffffffff1673ffffffffffffffffffffffffffffffffffffffff16815260200190815260200160002060006101000a81548160ff021916908315150217905550620002286200053260201b60201c565b73ffffffffffffffffffffffffffffffffffffffff168273ffffffffffffffffffffffffffffffffffffffff16847f2f8788117e7eff1d82e926ec794901d17c78024a50270940304540a733656f0d60405160405180910390a46001905062000291565b600090505b92915050565b600073ffffffffffffffffffffffffffffffffffffffff168373ffffffffffffffffffffffffffffffffffffffff1603620002ed578060026000828254620002e0919062000b29565b92505081905550620003c3565b60008060008573ffffffffffffffffffffffffffffffffffffffff1673ffffffffffffffffffffffffffffffffffffffff168152602001908152602001600020549050818110156200037c578381836040517fe450d38c000000000000000000000000000000000000000000000000000000008152600401620003739392919062000b75565b60405180910390fd5b8181036000808673ffffffffffffffffffffffffffffffffffffffff1673ffffffffffffffffffffffffffffffffffffffff16815260200190815260200160002081905550505b600073ffffffffffffffffffffffffffffffffffffffff168273ffffffffffffffffffffffffffffffffffffffff16036200040e57806002600082825403925050819055506200045b565b806000808473ffffffffffffffffffffffffffffffffffffffff1673ffffffffffffffffffffffffffffffffffffffff168152602001908152602001600020600082825401925050819055505b8173ffffffffffffffffffffffffffffffffffffffff168373ffffffffffffffffffffffffffffffffffffffff167fddf252ad1be2c89b69c2b068fc378daa952ba7f163c4a11628f55a4df523b3ef83604051620004ba919062000bb2565b60405180910390a3505050565b60006005600084815260200190815260200160002060000160008373ffffffffffffffffffffffffffffffffffffffff1673ffffffffffffffffffffffffffffffffffffffff16815260200190815260200160002060009054906101000a900460ff16905092915050565b600033905090565b600081519050919050565b7f4e487b7100000000000000000000000000000000000000000000000000000000600052604160045260246000fd5b7f4e487b7100000000000000000000000000000000000000000000000000000000600052602260045260246000fd5b60006002820490506001821680620005bc57607f821691505b602082108103620005d257620005d162000574565b5b50919050565b60008190508160005260206000209050919050565b60006020601f8301049050919050565b600082821b905092915050565b6000600883026200063c7fffffffffffffffffffffffffffffffffffffffffffffffffffffffffffffffff82620005fd565b620006488683620005fd565b95508019841693508086168417925050509392505050565b6000819050919050565b6000819050919050565b6000620006956200068f620006898462000660565b6200066a565b62000660565b9050919050565b6000819050919050565b620006b18362000674565b620006c9620006c0826200069c565b8484546200060a565b825550505050565b600090565b620006e0620006d1565b620006ed818484620006a6565b505050565b5b81811015620007155762000709600082620006d6565b600181019050620006f3565b5050565b601f82111562000764576200072e81620005d8565b6200073984620005ed565b8101602085101562000749578190505b620007616200075885620005ed565b830182620006f2565b50505b505050565b600082821c905092915050565b6000620007896000198460080262000769565b1980831691505092915050565b6000620007a4838362000776565b9150826002028217905092915050565b620007bf826200053a565b67ffffffffffffffff811115620007db57620007da62000545565b5b620007e78254620005a3565b620007f482828562000719565b600060209050601f8311600181146200082c576000841562000817578287015190505b62000823858262000796565b86555062000893565b601f1984166200083c86620005d8565b60005b8281101562000866578489015182556001820191506020850194506020810190506200083f565b8683101562000886578489015162000882601f89168262000776565b8355505b6001600288020188555050505b505050505050565b7f4e487b7100000000000000000000000000000000000000000000000000000000600052601160045260246000fd5b60008160011c9050919050565b6000808291508390505b600185111562000929578086048111156200090157620009006200089b565b5b6001851615620009115780820291505b80810290506200092185620008ca565b9450620008e1565b94509492505050565b60008262000944576001905062000a17565b8162000954576000905062000a17565b81600181146200096d57600281146200097857620009ae565b600191505062000a17565b60ff8411156200098d576200098c6200089b565b5b8360020a915084821115620009a757620009a66200089b565b5b5062000a17565b5060208310610133831016604e8410600b8410161715620009e85782820a905083811115620009e257620009e16200089b565b5b62000a17565b620009f78484846001620008d7565b9250905081840481111562000a115762000a106200089b565b5b81810290505b9392505050565b600060ff82169050919050565b600062000a388262000660565b915062000a458362000a1e565b925062000a747fffffffffffffffffffffffffffffffffffffffffffffffffffffffffffffffff848462000932565b905092915050565b600062000a898262000660565b915062000a968362000660565b925082820262000aa68162000660565b9150828204841483151762000ac05762000abf6200089b565b5b5092915050565b600073ffffffffffffffffffffffffffffffffffffffff82169050919050565b600062000af48262000ac7565b9050919050565b62000b068162000ae7565b82525050565b600060208201905062000b23600083018462000afb565b92915050565b600062000b368262000660565b915062000b438362000660565b925082820190508082111562000b5e5762000b5d6200089b565b5b92915050565b62000b6f8162000660565b82525050565b600060608201905062000b8c600083018662000afb565b62000b9b602083018562000b64565b62000baa604083018462000b64565b949350505050565b600060208201905062000bc9600083018462000b64565b92915050565b61181e8062000bdf6000396000f3fe608060405234801561001057600080fd5b506004361061012c5760003560e01c806342966c68116100ad578063a217fddf11610071578063a217fddf14610355578063a9059cbb14610373578063d5391393146103a3578063d547741f146103c1578063dd62ed3e146103dd5761012c565b806342966c681461029f57806370a08231146102bb57806379cc6790146102eb57806391d148541461030757806395d89b41146103375761012c565b8063248a9ca3116100f4578063248a9ca3146101fd5780632f2ff15d1461022d578063313ce5671461024957806336568abe1461026757806340c10f19146102835761012c565b806301ffc9a71461013157806306fdde0314610161578063095ea7b31461017f57806318160ddd146101af57806323b872dd146101cd575b600080fd5b61014b60048036038101906101469190611297565b61040d565b60405161015891906112df565b60405180910390f35b610169610487565b604051610176919061138a565b60405180910390f35b61019960048036038101906101949190611440565b610519565b6040516101a691906112df565b60405180910390f35b6101b761053c565b6040516101c4919061148f565b60405180910390f35b6101e760048036038101906101e291906114aa565b610546565b6040516101f491906112df565b60405180910390f35b61021760048036038101906102129190611533565b610575565b604051610224919061156f565b60405180910390f35b6102476004803603810190610242919061158a565b610595565b005b6102516105b7565b60405161025e91906115e6565b60405180910390f35b610281600480360381019061027c919061158a565b6105c0565b005b61029d60048036038101906102989190611440565b61063b565b005b6102b960048036038101906102b49190611601565b610674565b005b6102d560048036038101906102d0919061162e565b610688565b6040516102e2919061148f565b60405180910390f35b61030560048036038101906103009190611440565b6106d0565b005b610321600480360381019061031c919061158a565b6106f0565b60405161032e91906112df565b60405180910390f35b61033f61075b565b60405161034c919061138a565b60405180910390f35b61035d6107ed565b60405161036a919061156f565b60405180910390f35b61038d60048036038101906103889190611440565b6107f4565b60405161039a91906112df565b60405180910390f35b6103ab610817565b6040516103b8919061156f565b60405180910390f35b6103db60048036038101906103d6919061158a565b61083b565b005b6103f760048036038101906103f2919061165b565b61085d565b604051610404919061148f565b60405180910390f35b60007f7965db0b000000000000000000000000000000000000000000000000000000007bffffffffffffffffffffffffffffffffffffffffffffffffffffffff1916827bffffffffffffffffffffffffffffffffffffffffffffffffffffffff19161480610480575061047f826108e4565b5b9050919050565b606060038054610496906116ca565b80601f01602080910402602001604051908101604052809291908181526020018280546104c2906116ca565b801561050f5780601f106104e45761010080835404028352916020019161050f565b820191906000526020600020905b8154815290600101906020018083116104f257829003601f168201915b5050505050905090565b60008061052461094e565b9050610531818585610956565b600191505092915050565b6000600254905090565b60008061055161094e565b905061055e858285610968565b6105698585856109fc565b60019150509392505050565b600060056000838152602001908152602001600020600101549050919050565b61059e82610575565b6105a781610af0565b6105b18383610b04565b50505050565b60006008905090565b6105c861094e565b73ffffffffffffffffffffffffffffffffffffffff168173ffffffffffffffffffffffffffffffffffffffff161461062c576040517f6697b23200000000000000000000000000000000000000000000000000000000815260040160405180910390fd5b6106368282610bf6565b505050565b7f9f2df0fed2c77648de5860a4cc508cd0818c85b8b8a1ab4ceeef8d981c8956a661066581610af0565b61066f8383610ce9565b505050565b61068561067f61094e565b82610d6b565b50565b60008060008373ffffffffffffffffffffffffffffffffffffffff1673ffffffffffffffffffffffffffffffffffffffff168152602001908152602001600020549050919050565b6106e2826106dc61094e565b83610968565b6106ec8282610d6b565b5050565b60006005600084815260200190815260200160002060000160008373ffffffffffffffffffffffffffffffffffffffff1673ffffffffffffffffffffffffffffffffffffffff16815260200190815260200160002060009054906101000a900460ff16905092915050565b60606004805461076a906116ca565b80601f0160208091040260200160405190810160405280929190818152602001828054610796906116ca565b80156107e35780601f106107b8576101008083540402835291602001916107e3565b820191906000526020600020905b8154815290600101906020018083116107c657829003601f168201915b5050505050905090565b6000801b81565b6000806107ff61094e565b905061080c8185856109fc565b600191505092915050565b7f9f2df0fed2c77648de5860a4cc508cd0818c85b8b8a1ab4ceeef8d981c8956a681565b61084482610575565b61084d81610af0565b6108578383610bf6565b50505050565b6000600160008473ffffffffffffffffffffffffffffffffffffffff1673ffffffffffffffffffffffffffffffffffffffff16815260200190815260200160002060008373ffffffffffffffffffffffffffffffffffffffff1673ffffffffffffffffffffffffffffffffffffffff16815260200190815260200160002054905092915050565b60007f01ffc9a7000000000000000000000000000000000000000000000000000000007bffffffffffffffffffffffffffffffffffffffffffffffffffffffff1916827bffffffffffffffffffffffffffffffffffffffffffffffffffffffff1916149050919050565b600033905090565b6109638383836001610ded565b505050565b6000610974848461085d565b90507fffffffffffffffffffffffffffffffffffffffffffffffffffffffffffffffff81146109f657818110156109e6578281836040517ffb8f41b20000000000000000000000000000000000000000000000000000000081526004016109dd9392919061170a565b60405180910390fd5b6109f584848484036000610ded565b5b50505050565b600073ffffffffffffffffffffffffffffffffffffffff168373ffffffffffffffffffffffffffffffffffffffff1603610a6e5760006040517f96c6fd1e000000000000000000000000000000000000000000000000000000008152600401610a659190611741565b60405180910390fd5b600073ffffffffffffffffffffffffffffffffffffffff168273ffffffffffffffffffffffffffffffffffffffff1603610ae05760006040517fec442f05000000000000000000000000000000000000000000000000000000008152600401610ad79190611741565b60405180910390fd5b610aeb838383610fc4565b505050565b610b0181610afc61094e565b6111e9565b50565b6000610b1083836106f0565b610beb5760016005600085815260200190815260200160002060000160008473ffffffffffffffffffffffffffffffffffffffff1673ffffffffffffffffffffffffffffffffffffffff16815260200190815260200160002060006101000a81548160ff021916908315150217905550610b8861094e565b73ffffffffffffffffffffffffffffffffffffffff168273ffffffffffffffffffffffffffffffffffffffff16847f2f8788117e7eff1d82e926ec794901d17c78024a50270940304540a733656f0d60405160405180910390a460019050610bf0565b600090505b92915050565b6000610c0283836106f0565b15610cde5760006005600085815260200190815260200160002060000160008473ffffffffffffffffffffffffffffffffffffffff1673ffffffffffffffffffffffffffffffffffffffff16815260200190815260200160002060006101000a81548160ff021916908315150217905550610c7b61094e565b73ffffffffffffffffffffffffffffffffffffffff168273ffffffffffffffffffffffffffffffffffffffff16847ff6391f5c32d9c69d2a47ea670b442974b53935d1edc7fd64eb21e047a839171b60405160405180910390a460019050610ce3565b600090505b92915050565b600073ffffffffffffffffffffffffffffffffffffffff168273ffffffffffffffffffffffffffffffffffffffff1603610d5b5760006040517fec442f05000000000000000000000000000000000000000000000000000000008152600401610d529190611741565b60405180910390fd5b610d6760008383610fc4565b5050565b600073ffffffffffffffffffffffffffffffffffffffff168273ffffffffffffffffffffffffffffffffffffffff1603610ddd5760006040517f96c6fd1e000000000000000000000000000000000000000000000000000000008152600401610dd49190611741565b60405180910390fd5b610de982600083610fc4565b5050565b600073ffffffffffffffffffffffffffffffffffffffff168473ffffffffffffffffffffffffffffffffffffffff1603610e5f5760006040517fe602df05000000000000000000000000000000000000000000000000000000008152600401610e569190611741565b60405180910390fd5b600073ffffffffffffffffffffffffffffffffffffffff168373ffffffffffffffffffffffffffffffffffffffff1603610ed15760006040517f94280d62000000000000000000000000000000000000000000000000000000008152600401610ec89190611741565b60405180910390fd5b81600160008673ffffffffffffffffffffffffffffffffffffffff1673ffffffffffffffffffffffffffffffffffffffff16815260200190815260200160002060008573ffffffffffffffffffffffffffffffffffffffff1673ffffffffffffffffffffffffffffffffffffffff168152602001908152602001600020819055508015610fbe578273ffffffffffffffffffffffffffffffffffffffff168473ffffffffffffffffffffffffffffffffffffffff167f8c5be1e5ebec7d5bd14f71427d1e84f3dd0314c0f7b2291e5b200ac8c7c3b92584604051610fb5919061148f565b60405180910390a35b50505050565b600073ffffffffffffffffffffffffffffffffffffffff168373ffffffffffffffffffffffffffffffffffffffff160361101657806002600082825461100a919061178b565b925050819055506110e9565b60008060008573ffffffffffffffffffffffffffffffffffffffff1673ffffffffffffffffffffffffffffffffffffffff168152602001908152602001600020549050818110156110a2578381836040517fe450d38c0000000000000000000000000000000000000000000000000000000081526004016110999392919061170a565b60405180910390fd5b8181036000808673ffffffffffffffffffffffffffffffffffffffff1673ffffffffffffffffffffffffffffffffffffffff16815260200190815260200160002081905550505b600073ffffffffffffffffffffffffffffffffffffffff168273ffffffffffffffffffffffffffffffffffffffff1603611132578060026000828254039250508190555061117f565b806000808473ffffffffffffffffffffffffffffffffffffffff1673ffffffffffffffffffffffffffffffffffffffff168152602001908152602001600020600082825401925050819055505b8173ffffffffffffffffffffffffffffffffffffffff168373ffffffffffffffffffffffffffffffffffffffff167fddf252ad1be2c89b69c2b068fc378daa952ba7f163c4a11628f55a4df523b3ef836040516111dc919061148f565b60405180910390a3505050565b6111f382826106f0565b6112365780826040517fe2517d3f00000000000000000000000000000000000000000000000000000000815260040161122d9291906117bf565b60405180910390fd5b5050565b600080fd5b60007fffffffff0000000000000000000000000000000000000000000000000000000082169050919050565b6112748161123f565b811461127f57600080fd5b50565b6000813590506112918161126b565b92915050565b6000602082840312156112ad576112ac61123a565b5b60006112bb84828501611282565b91505092915050565b60008115159050919050565b6112d9816112c4565b82525050565b60006020820190506112f460008301846112d0565b92915050565b600081519050919050565b600082825260208201905092915050565b60005b83811015611334578082015181840152602081019050611319565b60008484015250505050565b6000601f19601f8301169050919050565b600061135c826112fa565b6113668185611305565b9350611376818560208601611316565b61137f81611340565b840191505092915050565b600060208201905081810360008301526113a48184611351565b905092915050565b600073ffffffffffffffffffffffffffffffffffffffff82169050919050565b60006113d7826113ac565b9050919050565b6113e7816113cc565b81146113f257600080fd5b50565b600081359050611404816113de565b92915050565b6000819050919050565b61141d8161140a565b811461142857600080fd5b50565b60008135905061143a81611414565b92915050565b600080604083850312156114575761145661123a565b5b6000611465858286016113f5565b92505060206114768582860161142b565b9150509250929050565b6114898161140a565b82525050565b60006020820190506114a46000830184611480565b92915050565b6000806000606084860312156114c3576114c261123a565b5b60006114d1868287016113f5565b93505060206114e2868287016113f5565b92505060406114f38682870161142b565b9150509250925092565b6000819050919050565b611510816114fd565b811461151b57600080fd5b50565b60008135905061152d81611507565b92915050565b6000602082840312156115495761154861123a565b5b60006115578482850161151e565b91505092915050565b611569816114fd565b82525050565b60006020820190506115846000830184611560565b92915050565b600080604083850312156115a1576115a061123a565b5b60006115af8582860161151e565b92505060206115c0858286016113f5565b9150509250929050565b600060ff82169050919050565b6115e0816115ca565b82525050565b60006020820190506115fb60008301846115d7565b92915050565b6000602082840312156116175761161661123a565b5b60006116258482850161142b565b91505092915050565b6000602082840312156116445761164361123a565b5b6000611652848285016113f5565b91505092915050565b600080604083850312156116725761167161123a565b5b6000611680858286016113f5565b9250506020611691858286016113f5565b9150509250929050565b7f4e487b7100000000000000000000000000000000000000000000000000000000600052602260045260246000fd5b600060028204905060018216806116e257607f821691505b6020821081036116f5576116f461169b565b5b50919050565b611704816113cc565b82525050565b600060608201905061171f60008301866116fb565b61172c6020830185611480565b6117396040830184611480565b949350505050565b600060208201905061175660008301846116fb565b92915050565b7f4e487b7100000000000000000000000000000000000000000000000000000000600052601160045260246000fd5b60006117968261140a565b91506117a18361140a565b92508282019050808211156117b9576117b861175c565b5b92915050565b60006040820190506117d460008301856116fb565b6117e16020830184611560565b939250505056fea2646970667358221220a07727dd48d536d88f36981bfa5a203e34f657feb69a85c9db27fab3d79608ce64736f6c63430008180033",
  "linkReferences": {},
  "deployedLinkReferences": {}
}