{
  "_format": "hh-sol-artifact-1",
  "contractName": "MyNFT",
  "sourceName": "contracts/MyNFT.sol",
  "abi": [
    {
      "inputs": [],
      "stateMutability": "nonpayable",
      "type": "constructor"
    },
    {
      "inputs": [
        {
          "internalType": "address",
          "name": "sender",
          "type": "address"
        },
        {
          "internalType": "uint256",
          "name": "tokenId",
          "type": "uint256"
        },
        {
          "internalType": "address",
          "name": "owner",
          "type": "address"
        }
      ],
      "name": "ERC721IncorrectOwner",
      "type": "error"
    },
    {
      "inputs": [
        {
          "internalType": "address",
          "name": "operator",
          "type": "address"
        },
        {
          "internalType": "uint256",
          "name": "tokenId",
          "type": "uint256"
        }
      ],
      "name": "ERC721InsufficientApproval",
      "type": "error"
    },
    {
      "inputs": [
        {
          "internalType": "address",
          "name": "approver",
          "type": "address"
        }
      ],
      "name": "ERC721InvalidApprover",
      "type": "error"
    },
    {
      "inputs": [
        {
          "internalType": "address",
          "name": "operator",
          "type": "address"
        }
      ],
      "name": "ERC721InvalidOperator",
      "type": "error"
    },
    {
      "inputs": [
        {
          "internalType": "address",
          "name": "owner",
          "type": "address"
        }
      ],
      "name": "ERC721InvalidOwner",
      "type": "error"
    },
    {
      "inputs": [
        {
          "internalType": "address",
          "name": "receiver",
          "type": "address"
        }
      ],
      "name": "ERC721InvalidReceiver",
      "type": "error"
    },
    {
      "inputs": [
        {
          "internalType": "address",
          "name": "sender",
          "type": "address"
        }
      ],
      "name": "ERC721InvalidSender",
      "type": "error"
    },
    {
      "inputs": [
        {
          "internalType": "uint256",
          "name": "tokenId",
          "type": "uint256"
        }
      ],
      "name": "ERC721NonexistentToken",
      "type": "error"
    },
    {
      "anonymous": false,
      "inputs": [
        {
          "indexed": true,
          "internalType": "address",
          "name": "owner",
          "type": "address"
        },
        {
          "indexed": true,
          "internalType": "address",
          "name": "approved",
          "type": "address"
        },
        {
          "indexed": true,
          "internalType": "uint256",
          "name": "tokenId",
          "type": "uint256"
        }
      ],
      "name": "Approval",
      "type": "event"
    },
    {
      "anonymous": false,
      "inputs": [
        {
          "indexed": true,
          "internalType": "address",
          "name": "owner",
          "type": "address"
        },
        {
          "indexed": true,
          "internalType": "address",
          "name": "operator",
          "type": "address"
        },
        {
          "indexed": false,
          "internalType": "bool",
          "name": "approved",
          "type": "bool"
        }
      ],
      "name": "ApprovalForAll",
      "type": "event"
    },
    {
      "anonymous": false,
      "inputs": [
        {
          "indexed": true,
          "internalType": "address",
          "name": "from",
          "type": "address"
        },
        {
          "indexed": true,
          "internalType": "address",
          "name": "to",
          "type": "address"
        },
        {
          "indexed": true,
          "internalType": "uint256",
          "name": "tokenId",
          "type": "uint256"
        }
      ],
      "name": "Transfer",
      "type": "event"
    },
    {
      "inputs": [
        {
          "internalType": "address",
          "name": "to",
          "type": "address"
        },
        {
          "internalType": "uint256",
          "name": "tokenId",
          "type": "uint256"
        }
      ],
      "name": "approve",
      "outputs": [],
      "stateMutability": "nonpayable",
      "type": "function"
    },
    {
      "inputs": [
        {
          "internalType": "address",
          "name": "owner",
          "type": "address"
        }
      ],
      "name": "balanceOf",
      "outputs": [
        {
          "internalType": "uint256",
          "name": "",
          "type": "uint256"
        }
      ],
      "stateMutability": "view",
      "type": "function"
    },
    {
      "inputs": [
        {
          "internalType": "uint256",
          "name": "tokenID",
          "type": "uint256"
        }
      ],
      "name": "burn",
      "outputs": [],
      "stateMutability": "nonpayable",
      "type": "function"
    },
    {
      "inputs": [
        {
          "internalType": "uint256",
          "name": "tokenId",
          "type": "uint256"
        }
      ],
      "name": "getApproved",
      "outputs": [
        {
          "internalType": "address",
          "name": "",
          "type": "address"
        }
      ],
      "stateMutability": "view",
      "type": "function"
    },
    {
      "inputs": [
        {
          "internalType": "address",
          "name": "owner",
          "type": "address"
        },
        {
          "internalType": "address",
          "name": "operator",
          "type": "address"
        }
      ],
      "name": "isApprovedForAll",
      "outputs": [
        {
          "internalType": "bool",
          "name": "",
          "type": "bool"
        }
      ],
      "stateMutability": "view",
      "type": "function"
    },
    {
      "inputs": [
        {
          "internalType": "address",
          "name": "to",
          "type": "address"
        },
        {
          "internalType": "uint256",
          "name": "tokenID",
          "type": "uint256"
        }
      ],
      "name": "mint",
      "outputs": [],
      "stateMutability": "nonpayable",
      "type": "function"
    },
    {
      "inputs": [],
      "name": "name",
      "outputs": [
        {
          "internalType": "string",
          "name": "",
          "type": "string"
        }
      ],
      "stateMutability": "view",
      "type": "function"
    },
    {
      "inputs": [
        {
          "internalType": "uint256",
          "name": "tokenId",
          "type": "uint256"
        }
      ],
      "name": "ownerOf",
      "outputs": [
        {
          "internalType": "address",
          "name": "",
          "type": "address"
        }
      ],
      "stateMutability": "view",
      "type": "function"
    },
    {
      "inputs": [
        {
          "internalType": "address",
          "name": "from",
          "type": "address"
        },
        {
          "internalType": "address",
          "name": "to",
          "type": "address"
        },
        {
          "internalType": "uint256",
          "name": "tokenId",
          "type": "uint256"
        }
      ],
      "name": "safeTransferFrom",
      "outputs": [],
      "stateMutability": "nonpayable",
      "type": "function"
    },
    {
      "inputs": [
        {
          "internalType": "address",
          "name": "from",
          "type": "address"
        },
        {
          "internalType": "address",
          "name": "to",
          "type": "address"
        },
        {
          "internalType": "uint256",
          "name": "tokenId",
          "type": "uint256"
        },
        {
          "internalType": "bytes",
          "name": "data",
          "type": "bytes"
        }
      ],
      "name": "safeTransferFrom",
      "outputs": [],
      "stateMutability": "nonpayable",
      "type": "function"
    },
    {
      "inputs": [
        {
          "internalType": "address",
          "name": "operator",
          "type": "address"
        },
        {
          "internalType": "bool",
          "name": "approved",
          "type": "bool"
        }
      ],
      "name": "setApprovalForAll",
      "outputs": [],
      "stateMutability": "nonpayable",
      "type": "function"
    },
    {
      "inputs": [
        {
          "internalType": "bytes4",
          "name": "interfaceId",
          "type": "bytes4"
        }
      ],
      "name": "supportsInterface",
      "outputs": [
        {
          "internalType": "bool",
          "name": "",
          "type": "bool"
        }
      ],
      "stateMutability": "view",
      "type": "function"
    },
    {
      "inputs": [],
      "name": "symbol",
      "outputs": [
        {
          "internalType": "string",
          "name": "",
          "type": "string"
        }
      ],
      "stateMutability": "view",
      "type": "function"
    },
    {
      "inputs": [
        {
          "internalType": "uint256",
          "name": "tokenId",
          "type": "uint256"
        }
      ],
      "name": "tokenURI",
      "outputs": [
        {
          "internalType": "string",
          "name": "",
          "type": "string"
        }
      ],
      "stateMutability": "view",
      "type": "function"
    },
    {
      "inputs": [
        {
          "internalType": "address",
          "name": "from",
          "type": "address"
        },
        {
          "internalType": "address",
          "name": "to",
          "type": "address"
        },
        {
          "internalType": "uint256",
          "name": "tokenId",
          "type": "uint256"
        }
      ],
      "name": "transferFrom",
      "outputs": [],
      "stateMutability": "nonpayable",
      "type": "function"
    }
  ],
  "bytecode": "0x60806040523480156200001157600080fd5b506040518060400160405280600581526020017f4d794e46540000000000000000000000000000000000000000000000000000008152506040518060400160405280600381526020017f4e4654000000000000000000000000000000000000000000000000000000000081525081600090816200008f919062000dc5565b508060019081620000a1919062000dc5565b505050600060149050620000bc3382620000c360201b60201c565b50620010eb565b620000e5828260405180602001604052806000815250620000e960201b60201c565b5050565b620000fb83836200011560201b60201c565b6200011060008484846200021c60201b60201c565b505050565b600073ffffffffffffffffffffffffffffffffffffffff168273ffffffffffffffffffffffffffffffffffffffff16036200018a5760006040517f64a0ae9200000000000000000000000000000000000000000000000000000000815260040162000181919062000ef1565b60405180910390fd5b6000620001a083836000620003ea60201b60201c565b9050600073ffffffffffffffffffffffffffffffffffffffff168173ffffffffffffffffffffffffffffffffffffffff1614620002175760006040517f73c6ac6e0000000000000000000000000000000000000000000000000000000081526004016200020e919062000ef1565b60405180910390fd5b505050565b60008373ffffffffffffffffffffffffffffffffffffffff163b1115620003e4578273ffffffffffffffffffffffffffffffffffffffff1663150b7a02620002696200061f60201b60201c565b8685856040518563ffffffff1660e01b81526004016200028d949392919062000fb9565b6020604051808303816000875af1925050508015620002cc57506040513d601f19601f82011682018060405250810190620002c991906200106f565b60015b62000356573d8060008114620002ff576040519150601f19603f3d011682016040523d82523d6000602084013e62000304565b606091505b5060008151036200034e57836040517f64a0ae9200000000000000000000000000000000000000000000000000000000815260040162000345919062000ef1565b60405180910390fd5b805181602001fd5b63150b7a0260e01b7bffffffffffffffffffffffffffffffffffffffffffffffffffffffff1916817bffffffffffffffffffffffffffffffffffffffffffffffffffffffff191614620003e257836040517f64a0ae92000000000000000000000000000000000000000000000000000000008152600401620003d9919062000ef1565b60405180910390fd5b505b50505050565b600080620003fe846200062760201b60201c565b9050600073ffffffffffffffffffffffffffffffffffffffff168373ffffffffffffffffffffffffffffffffffffffff16146200044957620004488184866200066460201b60201c565b5b600073ffffffffffffffffffffffffffffffffffffffff168173ffffffffffffffffffffffffffffffffffffffff1614620004e357620004946000856000806200073660201b60201c565b6001600360008373ffffffffffffffffffffffffffffffffffffffff1673ffffffffffffffffffffffffffffffffffffffff168152602001908152602001600020600082825403925050819055505b600073ffffffffffffffffffffffffffffffffffffffff168573ffffffffffffffffffffffffffffffffffffffff161462000567576001600360008773ffffffffffffffffffffffffffffffffffffffff1673ffffffffffffffffffffffffffffffffffffffff168152602001908152602001600020600082825401925050819055505b846002600086815260200190815260200160002060006101000a81548173ffffffffffffffffffffffffffffffffffffffff021916908373ffffffffffffffffffffffffffffffffffffffff160217905550838573ffffffffffffffffffffffffffffffffffffffff168273ffffffffffffffffffffffffffffffffffffffff167fddf252ad1be2c89b69c2b068fc378daa952ba7f163c4a11628f55a4df523b3ef60405160405180910390a4809150509392505050565b600033905090565b60006002600083815260200190815260200160002060009054906101000a900473ffffffffffffffffffffffffffffffffffffffff169050919050565b620006778383836200091360201b60201c565b6200073157600073ffffffffffffffffffffffffffffffffffffffff168373ffffffffffffffffffffffffffffffffffffffff1603620006f057806040517f7e273289000000000000000000000000000000000000000000000000000000008152600401620006e79190620010a1565b60405180910390fd5b81816040517f177e802f00000000000000000000000000000000000000000000000000000000815260040162000728929190620010be565b60405180910390fd5b505050565b8080620007705750600073ffffffffffffffffffffffffffffffffffffffff168273ffffffffffffffffffffffffffffffffffffffff1614155b15620008bb5760006200078984620009e760201b60201c565b9050600073ffffffffffffffffffffffffffffffffffffffff168373ffffffffffffffffffffffffffffffffffffffff1614158015620007f557508273ffffffffffffffffffffffffffffffffffffffff168173ffffffffffffffffffffffffffffffffffffffff1614155b80156200081157506200080f818462000a7a60201b60201c565b155b156200085657826040517fa9fbf51f0000000000000000000000000000000000000000000000000000000081526004016200084d919062000ef1565b60405180910390fd5b8115620008b957838573ffffffffffffffffffffffffffffffffffffffff168273ffffffffffffffffffffffffffffffffffffffff167f8c5be1e5ebec7d5bd14f71427d1e84f3dd0314c0f7b2291e5b200ac8c7c3b92560405160405180910390a45b505b836004600085815260200190815260200160002060006101000a81548173ffffffffffffffffffffffffffffffffffffffff021916908373ffffffffffffffffffffffffffffffffffffffff16021790555050505050565b60008073ffffffffffffffffffffffffffffffffffffffff168373ffffffffffffffffffffffffffffffffffffffff1614158015620009de57508273ffffffffffffffffffffffffffffffffffffffff168473ffffffffffffffffffffffffffffffffffffffff16148062000996575062000995848462000a7a60201b60201c565b5b80620009dd57508273ffffffffffffffffffffffffffffffffffffffff16620009c58362000b0e60201b60201c565b73ffffffffffffffffffffffffffffffffffffffff16145b5b90509392505050565b600080620009fb836200062760201b60201c565b9050600073ffffffffffffffffffffffffffffffffffffffff168173ffffffffffffffffffffffffffffffffffffffff160362000a7157826040517f7e27328900000000000000000000000000000000000000000000000000000000815260040162000a689190620010a1565b60405180910390fd5b80915050919050565b6000600560008473ffffffffffffffffffffffffffffffffffffffff1673ffffffffffffffffffffffffffffffffffffffff16815260200190815260200160002060008373ffffffffffffffffffffffffffffffffffffffff1673ffffffffffffffffffffffffffffffffffffffff16815260200190815260200160002060009054906101000a900460ff16905092915050565b60006004600083815260200190815260200160002060009054906101000a900473ffffffffffffffffffffffffffffffffffffffff169050919050565b600081519050919050565b7f4e487b7100000000000000000000000000000000000000000000000000000000600052604160045260246000fd5b7f4e487b7100000000000000000000000000000000000000000000000000000000600052602260045260246000fd5b6000600282049050600182168062000bcd57607f821691505b60208210810362000be35762000be262000b85565b5b50919050565b60008190508160005260206000209050919050565b60006020601f8301049050919050565b600082821b905092915050565b60006008830262000c4d7fffffffffffffffffffffffffffffffffffffffffffffffffffffffffffffffff8262000c0e565b62000c59868362000c0e565b95508019841693508086168417925050509392505050565b6000819050919050565b6000819050919050565b600062000ca662000ca062000c9a8462000c71565b62000c7b565b62000c71565b9050919050565b6000819050919050565b62000cc28362000c85565b62000cda62000cd18262000cad565b84845462000c1b565b825550505050565b600090565b62000cf162000ce2565b62000cfe81848462000cb7565b505050565b5b8181101562000d265762000d1a60008262000ce7565b60018101905062000d04565b5050565b601f82111562000d755762000d3f8162000be9565b62000d4a8462000bfe565b8101602085101562000d5a578190505b62000d7262000d698562000bfe565b83018262000d03565b50505b505050565b600082821c905092915050565b600062000d9a6000198460080262000d7a565b1980831691505092915050565b600062000db5838362000d87565b9150826002028217905092915050565b62000dd08262000b4b565b67ffffffffffffffff81111562000dec5762000deb62000b56565b5b62000df8825462000bb4565b62000e0582828562000d2a565b600060209050601f83116001811462000e3d576000841562000e28578287015190505b62000e34858262000da7565b86555062000ea4565b601f19841662000e4d8662000be9565b60005b8281101562000e775784890151825560018201915060208501945060208101905062000e50565b8683101562000e97578489015162000e93601f89168262000d87565b8355505b6001600288020188555050505b505050505050565b600073ffffffffffffffffffffffffffffffffffffffff82169050919050565b600062000ed98262000eac565b9050919050565b62000eeb8162000ecc565b82525050565b600060208201905062000f08600083018462000ee0565b92915050565b62000f198162000c71565b82525050565b600081519050919050565b600082825260208201905092915050565b60005b8381101562000f5b57808201518184015260208101905062000f3e565b60008484015250505050565b6000601f19601f8301169050919050565b600062000f858262000f1f565b62000f91818562000f2a565b935062000fa381856020860162000f3b565b62000fae8162000f67565b840191505092915050565b600060808201905062000fd0600083018762000ee0565b62000fdf602083018662000ee0565b62000fee604083018562000f0e565b818103606083015262001002818462000f78565b905095945050505050565b600080fd5b60007fffffffff0000000000000000000000000000000000000000000000000000000082169050919050565b620010498162001012565b81146200105557600080fd5b50565b60008151905062001069816200103e565b92915050565b6000602082840312156200108857620010876200100d565b5b6000620010988482850162001058565b91505092915050565b6000602082019050620010b8600083018462000f0e565b92915050565b6000604082019050620010d5600083018562000ee0565b620010e4602083018462000f0e565b9392505050565b611ead80620010fb6000396000f3fe608060405234801561001057600080fd5b50600436106100f55760003560e01c806342966c6811610097578063a22cb46511610066578063a22cb46514610282578063b88d4fde1461029e578063c87b56dd146102ba578063e985e9c5146102ea576100f5565b806342966c68146101e85780636352211e1461020457806370a082311461023457806395d89b4114610264576100f5565b8063095ea7b3116100d3578063095ea7b31461017857806323b872dd1461019457806340c10f19146101b057806342842e0e146101cc576100f5565b806301ffc9a7146100fa57806306fdde031461012a578063081812fc14610148575b600080fd5b610114600480360381019061010f91906116f7565b61031a565b604051610121919061173f565b60405180910390f35b6101326103fc565b60405161013f91906117ea565b60405180910390f35b610162600480360381019061015d9190611842565b61048e565b60405161016f91906118b0565b60405180910390f35b610192600480360381019061018d91906118f7565b6104aa565b005b6101ae60048036038101906101a99190611937565b6104c0565b005b6101ca60048036038101906101c591906118f7565b6105c2565b005b6101e660048036038101906101e19190611937565b6105d0565b005b61020260048036038101906101fd9190611842565b6105f0565b005b61021e60048036038101906102199190611842565b6105fc565b60405161022b91906118b0565b60405180910390f35b61024e6004803603810190610249919061198a565b61060e565b60405161025b91906119c6565b60405180910390f35b61026c6106c8565b60405161027991906117ea565b60405180910390f35b61029c60048036038101906102979190611a0d565b61075a565b005b6102b860048036038101906102b39190611b82565b610770565b005b6102d460048036038101906102cf9190611842565b61078d565b6040516102e191906117ea565b60405180910390f35b61030460048036038101906102ff9190611c05565b6107f6565b604051610311919061173f565b60405180910390f35b60007f80ac58cd000000000000000000000000000000000000000000000000000000007bffffffffffffffffffffffffffffffffffffffffffffffffffffffff1916827bffffffffffffffffffffffffffffffffffffffffffffffffffffffff191614806103e557507f5b5e139f000000000000000000000000000000000000000000000000000000007bffffffffffffffffffffffffffffffffffffffffffffffffffffffff1916827bffffffffffffffffffffffffffffffffffffffffffffffffffffffff1916145b806103f557506103f48261088a565b5b9050919050565b60606000805461040b90611c74565b80601f016020809104026020016040519081016040528092919081815260200182805461043790611c74565b80156104845780601f1061045957610100808354040283529160200191610484565b820191906000526020600020905b81548152906001019060200180831161046757829003601f168201915b5050505050905090565b6000610499826108f4565b506104a38261097c565b9050919050565b6104bc82826104b76109b9565b6109c1565b5050565b600073ffffffffffffffffffffffffffffffffffffffff168273ffffffffffffffffffffffffffffffffffffffff16036105325760006040517f64a0ae9200000000000000000000000000000000000000000000000000000000815260040161052991906118b0565b60405180910390fd5b600061054683836105416109b9565b6109d3565b90508373ffffffffffffffffffffffffffffffffffffffff168173ffffffffffffffffffffffffffffffffffffffff16146105bc578382826040517f64283d7b0000000000000000000000000000000000000000000000000000000081526004016105b393929190611ca5565b60405180910390fd5b50505050565b6105cc8282610bed565b5050565b6105eb83838360405180602001604052806000815250610770565b505050565b6105f981610c0b565b50565b6000610607826108f4565b9050919050565b60008073ffffffffffffffffffffffffffffffffffffffff168273ffffffffffffffffffffffffffffffffffffffff16036106815760006040517f89c62b6400000000000000000000000000000000000000000000000000000000815260040161067891906118b0565b60405180910390fd5b600360008373ffffffffffffffffffffffffffffffffffffffff1673ffffffffffffffffffffffffffffffffffffffff168152602001908152602001600020549050919050565b6060600180546106d790611c74565b80601f016020809104026020016040519081016040528092919081815260200182805461070390611c74565b80156107505780601f1061072557610100808354040283529160200191610750565b820191906000526020600020905b81548152906001019060200180831161073357829003601f168201915b5050505050905090565b61076c6107656109b9565b8383610c91565b5050565b61077b8484846104c0565b61078784848484610e00565b50505050565b6060610798826108f4565b5060006107a3610fb7565b905060008151116107c357604051806020016040528060008152506107ee565b806107cd84610fce565b6040516020016107de929190611d18565b6040516020818303038152906040525b915050919050565b6000600560008473ffffffffffffffffffffffffffffffffffffffff1673ffffffffffffffffffffffffffffffffffffffff16815260200190815260200160002060008373ffffffffffffffffffffffffffffffffffffffff1673ffffffffffffffffffffffffffffffffffffffff16815260200190815260200160002060009054906101000a900460ff16905092915050565b60007f01ffc9a7000000000000000000000000000000000000000000000000000000007bffffffffffffffffffffffffffffffffffffffffffffffffffffffff1916827bffffffffffffffffffffffffffffffffffffffffffffffffffffffff1916149050919050565b6000806109008361109c565b9050600073ffffffffffffffffffffffffffffffffffffffff168173ffffffffffffffffffffffffffffffffffffffff160361097357826040517f7e27328900000000000000000000000000000000000000000000000000000000815260040161096a91906119c6565b60405180910390fd5b80915050919050565b60006004600083815260200190815260200160002060009054906101000a900473ffffffffffffffffffffffffffffffffffffffff169050919050565b600033905090565b6109ce83838360016110d9565b505050565b6000806109df8461109c565b9050600073ffffffffffffffffffffffffffffffffffffffff168373ffffffffffffffffffffffffffffffffffffffff1614610a2157610a2081848661129e565b5b600073ffffffffffffffffffffffffffffffffffffffff168173ffffffffffffffffffffffffffffffffffffffff1614610ab257610a636000856000806110d9565b6001600360008373ffffffffffffffffffffffffffffffffffffffff1673ffffffffffffffffffffffffffffffffffffffff168152602001908152602001600020600082825403925050819055505b600073ffffffffffffffffffffffffffffffffffffffff168573ffffffffffffffffffffffffffffffffffffffff1614610b35576001600360008773ffffffffffffffffffffffffffffffffffffffff1673ffffffffffffffffffffffffffffffffffffffff168152602001908152602001600020600082825401925050819055505b846002600086815260200190815260200160002060006101000a81548173ffffffffffffffffffffffffffffffffffffffff021916908373ffffffffffffffffffffffffffffffffffffffff160217905550838573ffffffffffffffffffffffffffffffffffffffff168273ffffffffffffffffffffffffffffffffffffffff167fddf252ad1be2c89b69c2b068fc378daa952ba7f163c4a11628f55a4df523b3ef60405160405180910390a4809150509392505050565b610c07828260405180602001604052806000815250611362565b5050565b6000610c1a60008360006109d3565b9050600073ffffffffffffffffffffffffffffffffffffffff168173ffffffffffffffffffffffffffffffffffffffff1603610c8d57816040517f7e273289000000000000000000000000000000000000000000000000000000008152600401610c8491906119c6565b60405180910390fd5b5050565b600073ffffffffffffffffffffffffffffffffffffffff168273ffffffffffffffffffffffffffffffffffffffff1603610d0257816040517f5b08ba18000000000000000000000000000000000000000000000000000000008152600401610cf991906118b0565b60405180910390fd5b80600560008573ffffffffffffffffffffffffffffffffffffffff1673ffffffffffffffffffffffffffffffffffffffff16815260200190815260200160002060008473ffffffffffffffffffffffffffffffffffffffff1673ffffffffffffffffffffffffffffffffffffffff16815260200190815260200160002060006101000a81548160ff0219169083151502179055508173ffffffffffffffffffffffffffffffffffffffff168373ffffffffffffffffffffffffffffffffffffffff167f17307eab39ab6107e8899845ad3d59bd9653f200f220920489ca2b5937696c3183604051610df3919061173f565b60405180910390a3505050565b60008373ffffffffffffffffffffffffffffffffffffffff163b1115610fb1578273ffffffffffffffffffffffffffffffffffffffff1663150b7a02610e446109b9565b8685856040518563ffffffff1660e01b8152600401610e669493929190611d91565b6020604051808303816000875af1925050508015610ea257506040513d601f19601f82011682018060405250810190610e9f9190611df2565b60015b610f26573d8060008114610ed2576040519150601f19603f3d011682016040523d82523d6000602084013e610ed7565b606091505b506000815103610f1e57836040517f64a0ae92000000000000000000000000000000000000000000000000000000008152600401610f1591906118b0565b60405180910390fd5b805181602001fd5b63150b7a0260e01b7bffffffffffffffffffffffffffffffffffffffffffffffffffffffff1916817bffffffffffffffffffffffffffffffffffffffffffffffffffffffff191614610faf57836040517f64a0ae92000000000000000000000000000000000000000000000000000000008152600401610fa691906118b0565b60405180910390fd5b505b50505050565b606060405180602001604052806000815250905090565b606060006001610fdd8461137e565b01905060008167ffffffffffffffff811115610ffc57610ffb611a57565b5b6040519080825280601f01601f19166020018201604052801561102e5781602001600182028036833780820191505090505b509050600082602001820190505b600115611091578080600190039150507f3031323334353637383961626364656600000000000000000000000000000000600a86061a8153600a858161108557611084611e1f565b5b0494506000850361103c575b819350505050919050565b60006002600083815260200190815260200160002060009054906101000a900473ffffffffffffffffffffffffffffffffffffffff169050919050565b80806111125750600073ffffffffffffffffffffffffffffffffffffffff168273ffffffffffffffffffffffffffffffffffffffff1614155b15611246576000611122846108f4565b9050600073ffffffffffffffffffffffffffffffffffffffff168373ffffffffffffffffffffffffffffffffffffffff161415801561118d57508273ffffffffffffffffffffffffffffffffffffffff168173ffffffffffffffffffffffffffffffffffffffff1614155b80156111a0575061119e81846107f6565b155b156111e257826040517fa9fbf51f0000000000000000000000000000000000000000000000000000000081526004016111d991906118b0565b60405180910390fd5b811561124457838573ffffffffffffffffffffffffffffffffffffffff168273ffffffffffffffffffffffffffffffffffffffff167f8c5be1e5ebec7d5bd14f71427d1e84f3dd0314c0f7b2291e5b200ac8c7c3b92560405160405180910390a45b505b836004600085815260200190815260200160002060006101000a81548173ffffffffffffffffffffffffffffffffffffffff021916908373ffffffffffffffffffffffffffffffffffffffff16021790555050505050565b6112a98383836114d1565b61135d57600073ffffffffffffffffffffffffffffffffffffffff168373ffffffffffffffffffffffffffffffffffffffff160361131e57806040517f7e27328900000000000000000000000000000000000000000000000000000000815260040161131591906119c6565b60405180910390fd5b81816040517f177e802f000000000000000000000000000000000000000000000000000000008152600401611354929190611e4e565b60405180910390fd5b505050565b61136c8383611592565b6113796000848484610e00565b505050565b600080600090507a184f03e93ff9f4daa797ed6e38ed64bf6a1f01000000000000000083106113dc577a184f03e93ff9f4daa797ed6e38ed64bf6a1f01000000000000000083816113d2576113d1611e1f565b5b0492506040810190505b6d04ee2d6d415b85acef81000000008310611419576d04ee2d6d415b85acef8100000000838161140f5761140e611e1f565b5b0492506020810190505b662386f26fc10000831061144857662386f26fc10000838161143e5761143d611e1f565b5b0492506010810190505b6305f5e1008310611471576305f5e100838161146757611466611e1f565b5b0492506008810190505b612710831061149657612710838161148c5761148b611e1f565b5b0492506004810190505b606483106114b957606483816114af576114ae611e1f565b5b0492506002810190505b600a83106114c8576001810190505b80915050919050565b60008073ffffffffffffffffffffffffffffffffffffffff168373ffffffffffffffffffffffffffffffffffffffff161415801561158957508273ffffffffffffffffffffffffffffffffffffffff168473ffffffffffffffffffffffffffffffffffffffff16148061154a575061154984846107f6565b5b8061158857508273ffffffffffffffffffffffffffffffffffffffff166115708361097c565b73ffffffffffffffffffffffffffffffffffffffff16145b5b90509392505050565b600073ffffffffffffffffffffffffffffffffffffffff168273ffffffffffffffffffffffffffffffffffffffff16036116045760006040517f64a0ae920000000000000000000000000000000000000000000000000000000081526004016115fb91906118b0565b60405180910390fd5b6000611612838360006109d3565b9050600073ffffffffffffffffffffffffffffffffffffffff168173ffffffffffffffffffffffffffffffffffffffff16146116865760006040517f73c6ac6e00000000000000000000000000000000000000000000000000000000815260040161167d91906118b0565b60405180910390fd5b505050565b6000604051905090565b600080fd5b600080fd5b60007fffffffff0000000000000000000000000000000000000000000000000000000082169050919050565b6116d48161169f565b81146116df57600080fd5b50565b6000813590506116f1816116cb565b92915050565b60006020828403121561170d5761170c611695565b5b600061171b848285016116e2565b91505092915050565b60008115159050919050565b61173981611724565b82525050565b60006020820190506117546000830184611730565b92915050565b600081519050919050565b600082825260208201905092915050565b60005b83811015611794578082015181840152602081019050611779565b60008484015250505050565b6000601f19601f8301169050919050565b60006117bc8261175a565b6117c68185611765565b93506117d6818560208601611776565b6117df816117a0565b840191505092915050565b6000602082019050818103600083015261180481846117b1565b905092915050565b6000819050919050565b61181f8161180c565b811461182a57600080fd5b50565b60008135905061183c81611816565b92915050565b60006020828403121561185857611857611695565b5b60006118668482850161182d565b91505092915050565b600073ffffffffffffffffffffffffffffffffffffffff82169050919050565b600061189a8261186f565b9050919050565b6118aa8161188f565b82525050565b60006020820190506118c560008301846118a1565b92915050565b6118d48161188f565b81146118df57600080fd5b50565b6000813590506118f1816118cb565b92915050565b6000806040838503121561190e5761190d611695565b5b600061191c858286016118e2565b925050602061192d8582860161182d565b9150509250929050565b6000806000606084860312156119505761194f611695565b5b600061195e868287016118e2565b935050602061196f868287016118e2565b92505060406119808682870161182d565b9150509250925092565b6000602082840312156119a05761199f611695565b5b60006119ae848285016118e2565b91505092915050565b6119c08161180c565b82525050565b60006020820190506119db60008301846119b7565b92915050565b6119ea81611724565b81146119f557600080fd5b50565b600081359050611a07816119e1565b92915050565b60008060408385031215611a2457611a23611695565b5b6000611a32858286016118e2565b9250506020611a43858286016119f8565b9150509250929050565b600080fd5b600080fd5b7f4e487b7100000000000000000000000000000000000000000000000000000000600052604160045260246000fd5b611a8f826117a0565b810181811067ffffffffffffffff82111715611aae57611aad611a57565b5b80604052505050565b6000611ac161168b565b9050611acd8282611a86565b919050565b600067ffffffffffffffff821115611aed57611aec611a57565b5b611af6826117a0565b9050602081019050919050565b82818337600083830152505050565b6000611b25611b2084611ad2565b611ab7565b905082815260208101848484011115611b4157611b40611a52565b5b611b4c848285611b03565b509392505050565b600082601f830112611b6957611b68611a4d565b5b8135611b79848260208601611b12565b91505092915050565b60008060008060808587031215611b9c57611b9b611695565b5b6000611baa878288016118e2565b9450506020611bbb878288016118e2565b9350506040611bcc8782880161182d565b925050606085013567ffffffffffffffff811115611bed57611bec61169a565b5b611bf987828801611b54565b91505092959194509250565b60008060408385031215611c1c57611c1b611695565b5b6000611c2a858286016118e2565b9250506020611c3b858286016118e2565b9150509250929050565b7f4e487b7100000000000000000000000000000000000000000000000000000000600052602260045260246000fd5b60006002820490506001821680611c8c57607f821691505b602082108103611c9f57611c9e611c45565b5b50919050565b6000606082019050611cba60008301866118a1565b611cc760208301856119b7565b611cd460408301846118a1565b949350505050565b600081905092915050565b6000611cf28261175a565b611cfc8185611cdc565b9350611d0c818560208601611776565b80840191505092915050565b6000611d248285611ce7565b9150611d308284611ce7565b91508190509392505050565b600081519050919050565b600082825260208201905092915050565b6000611d6382611d3c565b611d6d8185611d47565b9350611d7d818560208601611776565b611d86816117a0565b840191505092915050565b6000608082019050611da660008301876118a1565b611db360208301866118a1565b611dc060408301856119b7565b8181036060830152611dd28184611d58565b905095945050505050565b600081519050611dec816116cb565b92915050565b600060208284031215611e0857611e07611695565b5b6000611e1684828501611ddd565b91505092915050565b7f4e487b7100000000000000000000000000000000000000000000000000000000600052601260045260246000fd5b6000604082019050611e6360008301856118a1565b611e7060208301846119b7565b939250505056fea26469706673582212207cacab14f22786454958af1f558e28d83b553a518182c4659212d70d23d515a964736f6c63430008180033",
  "linkReferences": {},
  "deployedLinkReferences": {}
}