{
  "_format": "hh-sol-artifact-1",
  "contractName": "CallOracle",
  "sourceName": "contracts/CallOracle.sol",
  "abi": [
    {
      "inputs": [
        {
          "internalType": "address payable",
          "name": "_tellorAddress",
          "type": "address"
        }
      ],
      "stateMutability": "nonpayable",
      "type": "constructor"
    },
    {
      "inputs": [
        {
          "internalType": "uint256",
          "name": "maxTime",
          "type": "uint256"
        }
      ],
      "name": "getBtcSpotPrice",
      "outputs": [
        {
          "internalType": "uint256",
          "name": "",
          "type": "uint256"
        }
      ],
      "stateMutability": "view",
      "type": "function"
    },
    {
      "inputs": [
        {
          "internalType": "bytes32",
          "name": "_queryId",
          "type": "bytes32"
        },
        {
          "internalType": "uint256",
          "name": "_timestamp",
          "type": "uint256"
        }
      ],
      "name": "getDataAfter",
      "outputs": [
        {
          "internalType": "bytes",
          "name": "_value",
          "type": "bytes"
        },
        {
          "internalType": "uint256",
          "name": "_timestampRetrieved",
          "type": "uint256"
        }
      ],
      "stateMutability": "view",
      "type": "function"
    },
    {
      "inputs": [
        {
          "internalType": "bytes32",
          "name": "_queryId",
          "type": "bytes32"
        },
        {
          "internalType": "uint256",
          "name": "_timestamp",
          "type": "uint256"
        }
      ],
      "name": "getDataBefore",
      "outputs": [
        {
          "internalType": "bytes",
          "name": "_value",
          "type": "bytes"
        },
        {
          "internalType": "uint256",
          "name": "_timestampRetrieved",
          "type": "uint256"
        }
      ],
      "stateMutability": "view",
      "type": "function"
    },
    {
      "inputs": [
        {
          "internalType": "bytes32",
          "name": "_queryId",
          "type": "bytes32"
        },
        {
          "internalType": "uint256",
          "name": "_timestamp",
          "type": "uint256"
        }
      ],
      "name": "getIndexForDataAfter",
      "outputs": [
        {
          "internalType": "bool",
          "name": "_found",
          "type": "bool"
        },
        {
          "internalType": "uint256",
          "name": "_index",
          "type": "uint256"
        }
      ],
      "stateMutability": "view",
      "type": "function"
    },
    {
      "inputs": [
        {
          "internalType": "bytes32",
          "name": "_queryId",
          "type": "bytes32"
        },
        {
          "internalType": "uint256",
          "name": "_timestamp",
          "type": "uint256"
        }
      ],
      "name": "getIndexForDataBefore",
      "outputs": [
        {
          "internalType": "bool",
          "name": "_found",
          "type": "bool"
        },
        {
          "internalType": "uint256",
          "name": "_index",
          "type": "uint256"
        }
      ],
      "stateMutability": "view",
      "type": "function"
    },
    {
      "inputs": [
        {
          "internalType": "bytes32",
          "name": "_queryId",
          "type": "bytes32"
        },
        {
          "internalType": "uint256",
          "name": "_timestamp",
          "type": "uint256"
        },
        {
          "internalType": "uint256",
          "name": "_maxAge",
          "type": "uint256"
        },
        {
          "internalType": "uint256",
          "name": "_maxCount",
          "type": "uint256"
        }
      ],
      "name": "getMultipleValuesBefore",
      "outputs": [
        {
          "internalType": "bytes[]",
          "name": "_values",
          "type": "bytes[]"
        },
        {
          "internalType": "uint256[]",
          "name": "_timestamps",
          "type": "uint256[]"
        }
      ],
      "stateMutability": "view",
      "type": "function"
    },
    {
      "inputs": [
        {
          "internalType": "bytes32",
          "name": "_queryId",
          "type": "bytes32"
        }
      ],
      "name": "getNewValueCountbyQueryId",
      "outputs": [
        {
          "internalType": "uint256",
          "name": "",
          "type": "uint256"
        }
      ],
      "stateMutability": "view",
      "type": "function"
    },
    {
      "inputs": [
        {
          "internalType": "bytes32",
          "name": "_queryId",
          "type": "bytes32"
        },
        {
          "internalType": "uint256",
          "name": "_timestamp",
          "type": "uint256"
        }
      ],
      "name": "getReporterByTimestamp",
      "outputs": [
        {
          "internalType": "address",
          "name": "",
          "type": "address"
        }
      ],
      "stateMutability": "view",
      "type": "function"
    },
    {
      "inputs": [
        {
          "internalType": "bytes32",
          "name": "_queryId",
          "type": "bytes32"
        },
        {
          "internalType": "uint256",
          "name": "_index",
          "type": "uint256"
        }
      ],
      "name": "getTimestampbyQueryIdandIndex",
      "outputs": [
        {
          "internalType": "uint256",
          "name": "",
          "type": "uint256"
        }
      ],
      "stateMutability": "view",
      "type": "function"
    },
    {
      "inputs": [],
      "name": "idMappingContract",
      "outputs": [
        {
          "internalType": "contract IMappingContract",
          "name": "",
          "type": "address"
        }
      ],
      "stateMutability": "view",
      "type": "function"
    },
    {
      "inputs": [
        {
          "internalType": "bytes32",
          "name": "_queryId",
          "type": "bytes32"
        },
        {
          "internalType": "uint256",
          "name": "_timestamp",
          "type": "uint256"
        }
      ],
      "name": "isInDispute",
      "outputs": [
        {
          "internalType": "bool",
          "name": "",
          "type": "bool"
        }
      ],
      "stateMutability": "view",
      "type": "function"
    },
    {
      "inputs": [
        {
          "internalType": "bytes32",
          "name": "_queryId",
          "type": "bytes32"
        },
        {
          "internalType": "uint256",
          "name": "_timestamp",
          "type": "uint256"
        }
      ],
      "name": "retrieveData",
      "outputs": [
        {
          "internalType": "bytes",
          "name": "",
          "type": "bytes"
        }
      ],
      "stateMutability": "view",
      "type": "function"
    },
    {
      "inputs": [
        {
          "internalType": "address",
          "name": "_addy",
          "type": "address"
        }
      ],
      "name": "setIdMappingContract",
      "outputs": [],
      "stateMutability": "nonpayable",
      "type": "function"
    },
    {
      "inputs": [],
      "name": "tellor",
      "outputs": [
        {
          "internalType": "contract ITellor",
          "name": "",
          "type": "address"
        }
      ],
      "stateMutability": "view",
      "type": "function"
    },
    {
      "inputs": [
        {
          "internalType": "bytes32",
          "name": "_id",
          "type": "bytes32"
        }
      ],
      "name": "valueFor",
      "outputs": [
        {
          "internalType": "int256",
          "name": "_value",
          "type": "int256"
        },
        {
          "internalType": "uint256",
          "name": "_timestamp",
          "type": "uint256"
        },
        {
          "internalType": "uint256",
          "name": "_statusCode",
          "type": "uint256"
        }
      ],
      "stateMutability": "view",
      "type": "function"
    }
  ],
  "bytecode": "0x60806040523480156200001157600080fd5b50604051620020c3380380620020c38339818101604052810190620000379190620000ea565b80806000806101000a81548173ffffffffffffffffffffffffffffffffffffffff021916908373ffffffffffffffffffffffffffffffffffffffff16021790555050506200011c565b600080fd5b600073ffffffffffffffffffffffffffffffffffffffff82169050919050565b6000620000b28262000085565b9050919050565b620000c481620000a5565b8114620000d057600080fd5b50565b600081519050620000e481620000b9565b92915050565b60006020828403121562000103576200010262000080565b5b60006200011384828501620000d3565b91505092915050565b611f97806200012c6000396000f3fe608060405234801561001057600080fd5b50600436106100f55760003560e01c806380bc15f011610097578063e07c548611610066578063e07c5486146102d5578063f66f49c314610305578063f78eea8314610336578063fcd4a54614610368576100f5565b806380bc15f014610214578063a792765f14610244578063c5958af914610275578063ce5e11bf146102a5576100f5565b80632af8aae0116100d35780632af8aae01461016557806344e87f911461018357806364ee3c6d146101b357806377b03e0d146101e4576100f5565b8063193b505b146100fa5780631959ad5b146101165780632944908514610134575b600080fd5b610114600480360381019061010f91906111f9565b610399565b005b61011e610438565b60405161012b9190611285565b60405180910390f35b61014e6004803603810190610149919061130c565b61045c565b60405161015c929190611376565b60405180910390f35b61016d610505565b60405161017a91906113c0565b60405180910390f35b61019d6004803603810190610198919061130c565b61052b565b6040516101aa91906113db565b60405180910390f35b6101cd60048036038101906101c8919061130c565b6105d2565b6040516101db929190611486565b60405180910390f35b6101fe60048036038101906101f991906114b6565b61062c565b60405161020b91906114e3565b60405180910390f35b61022e600480360381019061022991906114fe565b6106d0565b60405161023b91906114e3565b60405180910390f35b61025e6004803603810190610259919061130c565b6107be565b60405161026c929190611486565b60405180910390f35b61028f600480360381019061028a919061130c565b610876565b60405161029c919061152b565b60405180910390f35b6102bf60048036038101906102ba919061130c565b610921565b6040516102cc91906114e3565b60405180910390f35b6102ef60048036038101906102ea919061130c565b6109c8565b6040516102fc919061155c565b60405180910390f35b61031f600480360381019061031a919061130c565b610a6f565b60405161032d929190611376565b60405180910390f35b610350600480360381019061034b91906114b6565b610c53565b60405161035f93929190611590565b60405180910390f35b610382600480360381019061037d91906115c7565b610d57565b6040516103909291906117f8565b60405180910390f35b600073ffffffffffffffffffffffffffffffffffffffff16600160009054906101000a900473ffffffffffffffffffffffffffffffffffffffff1673ffffffffffffffffffffffffffffffffffffffff16146103f457600080fd5b80600160006101000a81548173ffffffffffffffffffffffffffffffffffffffff021916908373ffffffffffffffffffffffffffffffffffffffff16021790555050565b60008054906101000a900473ffffffffffffffffffffffffffffffffffffffff1681565b60008060008054906101000a900473ffffffffffffffffffffffffffffffffffffffff1673ffffffffffffffffffffffffffffffffffffffff16632944908585856040518363ffffffff1660e01b81526004016104ba92919061183e565b6040805180830381865afa1580156104d6573d6000803e3d6000fd5b505050506040513d601f19601f820116820180604052508101906104fa91906118a8565b915091509250929050565b600160009054906101000a900473ffffffffffffffffffffffffffffffffffffffff1681565b60008060009054906101000a900473ffffffffffffffffffffffffffffffffffffffff1673ffffffffffffffffffffffffffffffffffffffff166344e87f9184846040518363ffffffff1660e01b815260040161058992919061183e565b602060405180830381865afa1580156105a6573d6000803e3d6000fd5b505050506040513d601f19601f820116820180604052508101906105ca91906118e8565b905092915050565b606060008060006105e38686610a6f565b915091508161060a5760006040518060200160405280600081525090935093505050610625565b6106148682610921565b92506106208684610876565b935050505b9250929050565b60008060009054906101000a900473ffffffffffffffffffffffffffffffffffffffff1673ffffffffffffffffffffffffffffffffffffffff166377b03e0d836040518263ffffffff1660e01b81526004016106889190611915565b602060405180830381865afa1580156106a5573d6000803e3d6000fd5b505050506040513d601f19601f820116820180604052508101906106c99190611930565b9050919050565b6000806040516020016106e290611a06565b6040516020818303038152906040526040516020016107019190611a85565b6040516020818303038152906040529050600081805190602001209050600080610738836104b0426107339190611ae9565b6107be565b91509150600081036107515760009450505050506107b9565b85814261075e9190611ae9565b1061079e576040517f08c379a000000000000000000000000000000000000000000000000000000000815260040161079590611b69565b60405180910390fd5b818060200190518101906107b29190611930565b9450505050505b919050565b606060008060009054906101000a900473ffffffffffffffffffffffffffffffffffffffff1673ffffffffffffffffffffffffffffffffffffffff1663a792765f85856040518363ffffffff1660e01b815260040161081e92919061183e565b600060405180830381865afa15801561083b573d6000803e3d6000fd5b505050506040513d6000823e3d601f19601f820116820180604052508101906108649190611caf565b90915080925081935050509250929050565b606060008054906101000a900473ffffffffffffffffffffffffffffffffffffffff1673ffffffffffffffffffffffffffffffffffffffff1663c5958af984846040518363ffffffff1660e01b81526004016108d392919061183e565b600060405180830381865afa1580156108f0573d6000803e3d6000fd5b505050506040513d6000823e3d601f19601f820116820180604052508101906109199190611d1e565b905092915050565b60008060009054906101000a900473ffffffffffffffffffffffffffffffffffffffff1673ffffffffffffffffffffffffffffffffffffffff1663ce5e11bf84846040518363ffffffff1660e01b815260040161097f92919061183e565b602060405180830381865afa15801561099c573d6000803e3d6000fd5b505050506040513d601f19601f820116820180604052508101906109c09190611930565b905092915050565b60008060009054906101000a900473ffffffffffffffffffffffffffffffffffffffff1673ffffffffffffffffffffffffffffffffffffffff1663e07c548684846040518363ffffffff1660e01b8152600401610a2692919061183e565b602060405180830381865afa158015610a43573d6000803e3d6000fd5b505050506040513d601f19601f82011682018060405250810190610a679190611d7c565b905092915050565b6000806000610a7d8561062c565b905060008103610a94576000809250925050610c4c565b8080610a9f90611da9565b91505060006001905060008060008490506000610abc8a83610921565b9050888111610ad75760008097509750505050505050610c4c565b610ae18a84610921565b905088811115610af057600094505b5b8415610bb85760028383610b059190611dd2565b610b0f9190611e35565b9350610b1b8a85610921565b905088811115610b65576000610b3d8b600187610b389190611ae9565b610921565b9050898111610b4f5760009550610b5f565b600185610b5c9190611ae9565b92505b50610bb3565b6000610b7d8b600187610b789190611dd2565b610921565b905089811115610ba157600095508480610b9690611e66565b955050809150610bb1565b600185610bae9190611dd2565b93505b505b610af1565b610bc28a8261052b565b610bd85760018497509750505050505050610c4c565b5b610be38a8261052b565b8015610bee57508584105b15610c12578380610bfe90611e66565b945050610c0b8a85610921565b9050610bd9565b8584148015610c275750610c268a8261052b565b5b15610c3e5760008097509750505050505050610c4c565b600184975097505050505050505b9250929050565b600080600080600160009054906101000a900473ffffffffffffffffffffffffffffffffffffffff1673ffffffffffffffffffffffffffffffffffffffff166387a475fd866040518263ffffffff1660e01b8152600401610cb49190611915565b602060405180830381865afa158015610cd1573d6000803e3d6000fd5b505050506040513d601f19601f82011682018060405250810190610cf59190611ec3565b90506060610d0f82600142610d0a9190611dd2565b6107be565b809550819250505060008403610d32576000806101949450945094505050610d50565b6000610d3d82611125565b9050809550858560c89550955095505050505b9193909250565b606080600080610d72888789610d6d9190611ae9565b610a6f565b9150915081610e1f57600067ffffffffffffffff811115610d9657610d95611b93565b5b604051908082528060200260200182016040528015610dc957816020015b6060815260200190600190039081610db45790505b50600067ffffffffffffffff811115610de557610de4611b93565b5b604051908082528060200260200182016040528015610e135781602001602082028036833780820191505090505b5093509350505061111c565b6000610e2b898961045c565b809250819450505082610edd57600067ffffffffffffffff811115610e5357610e52611b93565b5b604051908082528060200260200182016040528015610e8657816020015b6060815260200190600190039081610e715790505b50600067ffffffffffffffff811115610ea257610ea1611b93565b5b604051908082528060200260200182016040528015610ed05781602001602082028036833780820191505090505b509450945050505061111c565b60008060008867ffffffffffffffff811115610efc57610efb611b93565b5b604051908082528060200260200182016040528015610f2a5781602001602082028036833780820191505090505b5090505b8883108015610f5357508482600186610f479190611dd2565b610f519190611ae9565b115b15610fc2576000610f6f8d8487610f6a9190611ae9565b610921565b9050610f7b8d8261052b565b610fae5780828581518110610f9357610f92611ef0565b5b6020026020010181815250508380610faa90611e66565b9450505b8280610fb990611e66565b93505050610f2e565b60008367ffffffffffffffff811115610fde57610fdd611b93565b5b60405190808252806020026020018201604052801561101157816020015b6060815260200190600190039081610ffc5790505b50905060008467ffffffffffffffff8111156110305761102f611b93565b5b60405190808252806020026020018201604052801561105e5781602001602082028036833780820191505090505b50905060005b8581101561110c57838160018861107b9190611ae9565b6110859190611ae9565b8151811061109657611095611ef0565b5b60200260200101518282815181106110b1576110b0611ef0565b5b6020026020010181815250506110e18f8383815181106110d4576110d3611ef0565b5b6020026020010151610876565b8382815181106110f4576110f3611ef0565b5b60200260200101819052508080600101915050611064565b5081819950995050505050505050505b94509492505050565b600080600090505b82518110156111815782818151811061114957611148611ef0565b5b602001015160f81c60f81b60f81c60ff16610100836111689190611f1f565b6111729190611dd2565b9150808060010191505061112d565b50919050565b6000604051905090565b600080fd5b600080fd5b600073ffffffffffffffffffffffffffffffffffffffff82169050919050565b60006111c68261119b565b9050919050565b6111d6816111bb565b81146111e157600080fd5b50565b6000813590506111f3816111cd565b92915050565b60006020828403121561120f5761120e611191565b5b600061121d848285016111e4565b91505092915050565b6000819050919050565b600061124b6112466112418461119b565b611226565b61119b565b9050919050565b600061125d82611230565b9050919050565b600061126f82611252565b9050919050565b61127f81611264565b82525050565b600060208201905061129a6000830184611276565b92915050565b6000819050919050565b6112b3816112a0565b81146112be57600080fd5b50565b6000813590506112d0816112aa565b92915050565b6000819050919050565b6112e9816112d6565b81146112f457600080fd5b50565b600081359050611306816112e0565b92915050565b6000806040838503121561132357611322611191565b5b6000611331858286016112c1565b9250506020611342858286016112f7565b9150509250929050565b60008115159050919050565b6113618161134c565b82525050565b611370816112d6565b82525050565b600060408201905061138b6000830185611358565b6113986020830184611367565b9392505050565b60006113aa82611252565b9050919050565b6113ba8161139f565b82525050565b60006020820190506113d560008301846113b1565b92915050565b60006020820190506113f06000830184611358565b92915050565b600081519050919050565b600082825260208201905092915050565b60005b83811015611430578082015181840152602081019050611415565b60008484015250505050565b6000601f19601f8301169050919050565b6000611458826113f6565b6114628185611401565b9350611472818560208601611412565b61147b8161143c565b840191505092915050565b600060408201905081810360008301526114a0818561144d565b90506114af6020830184611367565b9392505050565b6000602082840312156114cc576114cb611191565b5b60006114da848285016112c1565b91505092915050565b60006020820190506114f86000830184611367565b92915050565b60006020828403121561151457611513611191565b5b6000611522848285016112f7565b91505092915050565b60006020820190508181036000830152611545818461144d565b905092915050565b611556816111bb565b82525050565b6000602082019050611571600083018461154d565b92915050565b6000819050919050565b61158a81611577565b82525050565b60006060820190506115a56000830186611581565b6115b26020830185611367565b6115bf6040830184611367565b949350505050565b600080600080608085870312156115e1576115e0611191565b5b60006115ef878288016112c1565b9450506020611600878288016112f7565b9350506040611611878288016112f7565b9250506060611622878288016112f7565b91505092959194509250565b600081519050919050565b600082825260208201905092915050565b6000819050602082019050919050565b600082825260208201905092915050565b6000611676826113f6565b611680818561165a565b9350611690818560208601611412565b6116998161143c565b840191505092915050565b60006116b0838361166b565b905092915050565b6000602082019050919050565b60006116d08261162e565b6116da8185611639565b9350836020820285016116ec8561164a565b8060005b85811015611728578484038952815161170985826116a4565b9450611714836116b8565b925060208a019950506001810190506116f0565b50829750879550505050505092915050565b600081519050919050565b600082825260208201905092915050565b6000819050602082019050919050565b61176f816112d6565b82525050565b60006117818383611766565b60208301905092915050565b6000602082019050919050565b60006117a58261173a565b6117af8185611745565b93506117ba83611756565b8060005b838110156117eb5781516117d28882611775565b97506117dd8361178d565b9250506001810190506117be565b5085935050505092915050565b6000604082019050818103600083015261181281856116c5565b90508181036020830152611826818461179a565b90509392505050565b611838816112a0565b82525050565b6000604082019050611853600083018561182f565b6118606020830184611367565b9392505050565b6118708161134c565b811461187b57600080fd5b50565b60008151905061188d81611867565b92915050565b6000815190506118a2816112e0565b92915050565b600080604083850312156118bf576118be611191565b5b60006118cd8582860161187e565b92505060206118de85828601611893565b9150509250929050565b6000602082840312156118fe576118fd611191565b5b600061190c8482850161187e565b91505092915050565b600060208201905061192a600083018461182f565b92915050565b60006020828403121561194657611945611191565b5b600061195484828501611893565b91505092915050565b600082825260208201905092915050565b7f6274630000000000000000000000000000000000000000000000000000000000600082015250565b60006119a460038361195d565b91506119af8261196e565b602082019050919050565b7f7573640000000000000000000000000000000000000000000000000000000000600082015250565b60006119f060038361195d565b91506119fb826119ba565b602082019050919050565b60006040820190508181036000830152611a1f81611997565b90508181036020830152611a32816119e3565b9050919050565b7f53706f7450726963650000000000000000000000000000000000000000000000600082015250565b6000611a6f60098361195d565b9150611a7a82611a39565b602082019050919050565b60006040820190508181036000830152611a9e81611a62565b90508181036020830152611ab2818461144d565b905092915050565b7f4e487b7100000000000000000000000000000000000000000000000000000000600052601160045260246000fd5b6000611af4826112d6565b9150611aff836112d6565b9250828203905081811115611b1757611b16611aba565b5b92915050565b7f4d6178696d756d2074696d6520656c6170736564000000000000000000000000600082015250565b6000611b5360148361195d565b9150611b5e82611b1d565b602082019050919050565b60006020820190508181036000830152611b8281611b46565b9050919050565b600080fd5b600080fd5b7f4e487b7100000000000000000000000000000000000000000000000000000000600052604160045260246000fd5b611bcb8261143c565b810181811067ffffffffffffffff82111715611bea57611be9611b93565b5b80604052505050565b6000611bfd611187565b9050611c098282611bc2565b919050565b600067ffffffffffffffff821115611c2957611c28611b93565b5b611c328261143c565b9050602081019050919050565b6000611c52611c4d84611c0e565b611bf3565b905082815260208101848484011115611c6e57611c6d611b8e565b5b611c79848285611412565b509392505050565b600082601f830112611c9657611c95611b89565b5b8151611ca6848260208601611c3f565b91505092915050565b600080600060608486031215611cc857611cc7611191565b5b6000611cd68682870161187e565b935050602084015167ffffffffffffffff811115611cf757611cf6611196565b5b611d0386828701611c81565b9250506040611d1486828701611893565b9150509250925092565b600060208284031215611d3457611d33611191565b5b600082015167ffffffffffffffff811115611d5257611d51611196565b5b611d5e84828501611c81565b91505092915050565b600081519050611d76816111cd565b92915050565b600060208284031215611d9257611d91611191565b5b6000611da084828501611d67565b91505092915050565b6000611db4826112d6565b915060008203611dc757611dc6611aba565b5b600182039050919050565b6000611ddd826112d6565b9150611de8836112d6565b9250828201905080821115611e0057611dff611aba565b5b92915050565b7f4e487b7100000000000000000000000000000000000000000000000000000000600052601260045260246000fd5b6000611e40826112d6565b9150611e4b836112d6565b925082611e5b57611e5a611e06565b5b828204905092915050565b6000611e71826112d6565b91507fffffffffffffffffffffffffffffffffffffffffffffffffffffffffffffffff8203611ea357611ea2611aba565b5b600182019050919050565b600081519050611ebd816112aa565b92915050565b600060208284031215611ed957611ed8611191565b5b6000611ee784828501611eae565b91505092915050565b7f4e487b7100000000000000000000000000000000000000000000000000000000600052603260045260246000fd5b6000611f2a826112d6565b9150611f35836112d6565b9250828202611f43816112d6565b91508282048414831517611f5a57611f59611aba565b5b509291505056fea2646970667358221220cafc23bde3d383c93410046a4b1da8f26c68d650b38a8a8f9c44f80f7ee020c364736f6c63430008180033",
  "linkReferences": {},
  "deployedLinkReferences": {}
}